:1000000001308A0015290000FF00030E8301A100C2
:100010000A08A0008A010408A2007708A300780853
:10002000A4007908A5007A08A600831383128B1E0A
:100030001B280B192C28220884002308F700240809
:10004000F8002508F9002608FA0020088A00210E89
:100050008300FF0E7F0E09008A110A1244282F0820
:10006000F8012E02031837282E08F7004328F7015D
:100070000830B000AE0DF70D2F0877020318F70017
:10008000F80DB00B3A2808002808023C0318E328B2
:10009000FF3A031D4F282708013C0318E328EC30E2
:1000A00003178D0000308F00031021300313AC00C4
:1000B000831603178C170C140000000003188828FF
:1000C00083120C087F390313AD0003170D080313C7
:1000D000AE0003170F080313AF002D080C1E6E2887
:1000E00099002E0803178D0003132F0803178F00A4
:1000F00083168C170C140000000083120313AC0B42
:1001000082288528831603178828A72883160317B3
:1001100083120C0D0E0D7F390313AD0003170D086C
:100120000313AE0003170F080313AF002D080C1EB6
:10013000972899002E0803178D0003132F08031723
:100140008F008D0A03198F0A0313AC0B5828290856
:10015000AC001330AD002C08AE006430AF002F208F
:100160007708AC0078083030031DBD28AD1CC528C9
:10017000AD19C5282D1A2030C028AD112D122D140F
:10018000F80778080C1EC22899002C08AE000A3027
:10019000AF002F207708AC0078083030031DD62838
:1001A000AD19DB282D1CDB282D1A2030F807780824
:1001B0000C1ED82899003030AC072C080C1EDE2805
:1001C0009900A801A701A70A0319A80A0A3081000B
:1001D0000B118A110A121B288A06D232F33A6C3AA2
:1001E00061326F10E43220366110E3376E3B6539BF
:1001F000F3346F37A020441DA012B33A00002B3017
:10020000840083130008031912290630F800F7014F
:10021000F70B0829F80B07297B30F700F70B0E299D
:10022000800B05298A110A125829840183131F3073
:100230008305403083169900A630980090308312D1
:10024000980083161F149F141F159F1107309C00E0
:100250008312A701A80183160108C039073881005D
:1002600064000A30831281008B16C0308B04831621
:100270001F109F101F119F111F1383121F179F170D
:1002800083169F1383121F140030F8001F08C7390C
:1002900078049F002130F700F70B4C291F151F1918
:1002A0004F291E08A9000430AA00FA30AB00FF282D
:0802B000AA0B55294E29630039
:023E00000800B8
:02400E00723FFF
:00000001FF
;PIC16F877A
;CRC=D4EF  CREATED="21-abr.-20 16:37"
