:1000000000308A00CF2800008A0645362039E539BD
:100010007536F430E43720326510EC30A0316F379C
:10002000F632F239E9376E104122A032731DA01268
:10003000B33A0000233084008313000803192D28ED
:100040000630F800F701F70B2328F80B22287B3045
:10005000F700F70B2928800B2028080083160317C8
:100060008C170C140000000003185E2883120C0883
:100070007F390313A30003170D080313A40003170C
:100080000F080313A50023080C1E44289900240818
:1000900003178D000313250803178F0083168C1791
:1000A0000C140000000083120313A20B58285B28D5
:1000B000831603175E287D288316031783120C0D01
:1000C0000E0D7F390313A30003170D080313A400BB
:1000D00003170F080313A50023080C1E6D289900B1
:1000E000240803178D000313250803178F008D0ABA
:1000F00003198F0A0313A20B2E288A110A120B2947
:100100002508F8012402031888282408F7009428F9
:10011000F7010830A600A40DF70D25087702031893
:10012000F700F80DA60B8B28080078082208A40019
:100130006430A50080207708A20078083030031DC5
:10014000A828A31CB028A319B028231A2030AB2854
:10015000A31123122314F80778080C1EAD28990068
:100160002208A4000A30A50080207708A2007808A1
:100170003030031DC128A319C628231CC628231A02
:100180002030F80778080C1EC32899003030A207E9
:1001900022080C1EC92899008A110A12102984010C
:1001A00083131F308305403083169900A6309800D2
:1001B00090308312980083161F149F141F159F11EF
:1001C00007309C001F109F101F119F111F138312D7
:1001D0001F179F1783169F1383121F140030F800F8
:1001E0001F08C73978049F001430A3001A201F1578
:1001F0001F19F8281E08A100831686018312210802
:100200008600043003178D0000308F000310273064
:100210000313A2002E282108A2001330A300952862
:100220000430A200FA30A3001A20A20B1229F728EA
:02023000630069
:02400E00733FFE
:00000001FF
;PIC16F877A
;CRC=1CDE  CREATED="21-abr.-20 16:29"
