:1000000001308A006A290000FF00030E8301A1006D
:100010000A08A0008A010408A2007708A300780853
:10002000A4007908A5007A08A600831383128B1E0A
:100030001B280B192C28220884002308F700240809
:10004000F8002508F9002608FA0020088A00210E89
:100050008300FF0E7F0E09008A110A122F2828083C
:100060000A3C03188528FF3A031D3A282708B73CA5
:10007000031885288E3003178D0000308F008316FB
:100080008C170C140000000083120C087F39031930
:1000900082280313AF0003170D080313B0000317E2
:1000A0000F080313B1002F080C1E542899003008C4
:1000B00003178D000313310803178F0083168C1765
:1000C0000C140000000083120C0D0E0D7F39031973
:1000D00082280313AF0003170D080313B0000317A2
:1000E0000F080313B1002F080C1E74289900300864
:1000F00003178D000313310803178F008D0A0319AE
:100100008F0A3F280313A801A701A70A0319A80A09
:100110003D3081000B118A110A121B288A06CC304F
:10012000E237F230F437F2346F10E432A036E931BE
:10013000F237E3376D38753A61326F39E1390000D3
:100140008A06D232F33A6C3A61326F10E4322036CA
:100150006110E3376E3B6539F3346F37A020441DDF
:10016000A012B33A0000831603178C170C1400007A
:1001700000000318E32883120C087F390313AB0037
:1001800003170D080313AC0003170F080313AD008A
:100190002B080C1EC92899002C0803178D00031387
:1001A0002D0803178F0083168C170C140000000015
:1001B00083120313AA0BDD28E02883160317E32814
:1001C00002298316031783120C0D0E0D7F390313BA
:1001D000AB0003170D080313AC0003170F0803133C
:1001E000AD002B080C1EF22899002C0803178D0077
:1001F00003132D0803178F008D0A03198F0A0313A9
:10020000AA0BB3288A110A12B2292D08F8012C0270
:1002100003180D292C08F7001929F7010830AE0042
:10022000AC0DF70D2D0877020318F700F80DAE0B93
:100230001029080078082A08AC006430AD000521B8
:100240007708AA0078083030031D2D29AB1C35290A
:10025000AB1935292B1A20303029AB112B122B1456
:10026000F80778080C1E322999002A08AC000A30D9
:10027000AD0005217708AA0078083030031D462913
:10028000AB194B292B1C4B292B1A2030F807780867
:100290000C1E482999003030AA072A080C1E4E2946
:1002A00099008A110A12B7292A30840083130008A2
:1002B000031967290630F800F701F70B5D29F80BE1
:1002C0005C297B30F700F70B6329800B5A298A11D0
:1002D0000A12BC29840183131F3083054030831622
:1002E0009900A630980090308312980083161F144E
:1002F0009F141F159F1107309C008312A701A801AE
:1003000083160108C0390738810064003D3083122C
:1003100081008B16C0308B0483161F109F101F1195
:100320009F111F1383121F179F1783169F1383128A
:100330001F140030F8001F08C73978049F002130CF
:10034000F700F70BA1291F151F19A4291E08A900E2
:10035000A03003178D0000308F00031021300313ED
:10036000AA00B3282908AA001330AB001A290430C8
:10037000A900FA30AA005429A90BB929A3296300BE
:023E00000800B8
:02400E00723FFF
:00000001FF
;PIC16F877A
;CRC=016D  CREATED="21-abr.-20 16:43"
