:1000000001308A00CE290000FF00030E8301A10009
:100010000A08A0008A010408A2007708A300780853
:10002000A4007908A5007A08A600831383128B1E0A
:100030001B280B1930288B1D1F280B18332822086A
:1000400084002308F7002408F8002508F900260892
:10005000FA0020088A00210E8300FF0E7F0E09009F
:100060008A110A12FF288A110A127E2883160317A2
:100070008C170C140000000083120C087F39031940
:100080007C280313B00003170D080313B1000317F6
:100090000F080313B20030080C1E4C2899003108D9
:1000A00003178D000313320803178F0083168C1774
:1000B0000C140000000083120C0D0E0D7F39031983
:1000C0007C280313B00003170D080313B1000317B6
:1000D0000F080313B20030080C1E6C289900310879
:1000E00003178D000313320803178F008D0A0319BD
:1000F0008F0A03133628031703130800FF308316F3
:10010000860083120608A8002808803C031D8F285B
:10011000BE3003178D0000308F00031336202808EF
:10012000403C031D9A28CC3003178D0000308F000F
:10013000031336202808203C031DA528DA300317B6
:100140008D0000308F00031336202808103C031D5B
:10015000B028E83003178D0000308F0003133620DD
:10016000A808031DBA28F63003178D0000308F0051
:10017000031336200B108A110A121F284937F43254
:1001800072397538E3346F372028C21BA030633AC8
:10019000693B613261050D004937F43272397538B7
:1001A000E3346F372028421BA030633A693B613249
:1001B00061050D004937F43272397538E3346F3711
:1001C0002028C21AA030633A693B613261050D00F4
:1001D0004937F43272397538E3346F372028421AC0
:1001E000A030633A693B613261050D00D03AEC39C9
:1001F0006F10E43220316135613261050D00A90ACA
:100200000319AA0A2908023C031D0C292A08033CE9
:10021000031D0C29AA01A9010B118A110A121F281A
:10022000F630EC37F21EA01275108A060000831615
:1002300003178C170C1400000000031847298312C1
:100240000C087F390313AC0003170D080313AD002E
:1002500003170F080313AE002C080C1E2D2999005C
:100260002D0803178D0003132E0803178F00831624
:100270008C170C140000000083120313AB0B4129F0
:100280004429831603174729662983160317831207
:100290000C0D0E0D7F390313AC0003170D0803136B
:1002A000AD0003170F080313AE002C080C1E5629CF
:1002B00099002D0803178D0003132E0803178F00D4
:1002C0008D0A03198F0A0313AB0B17298A110A121F
:1002D000052A2E08F8012D02031871292D08F700B0
:1002E0007D29F7010830AF00AD0DF70D2E0877021C
:1002F0000318F700F80DAF0B7429080078082B08D5
:10030000AD006430AE0069217708AB00780830306A
:10031000031D9129AC1C9929AC1999292C1A20305C
:100320009429AC112C122C14F80778080C1E96296D
:1003300099002B08AD000A30AE0069217708AB00A8
:1003400078083030031DAA29AC19AF292C1CAF291D
:100350002C1A2030F80778080C1EAC299900303090
:10036000AB072B080C1EB22999008A110A120A2A1F
:100370002B308400831300080319CB290630F800C2
:10038000F701F70BC129F80BC0297B30F700F70BF9
:10039000C729800BBE298A110A12192A84018313E6
:1003A0001F308305813083169900A6309800903065
:1003B00083129800AA01A90183161F149F141F1508
:1003C0009F1183128B15810183160108C0390738EC
:1003D0008100640083128B16C0308B042130F7003B
:1003E000F70BF0291F151F19F3291E08A70021304C
:1003F000F700F70BF929103003178D0001308F003B
:10040000031007300313AB0017292708AB001B307C
:10041000AC007E2920300C1E0B2A99000A300C1EDD
:100420000F2A99000D300C1E132A99006430AB007E
:06043000B829EE2963006B
:023E00000800B8
:02400E00723FFF
:00000001FF
;PIC16F877
;CRC=AE41  CREATED="21-abr.-20 16:47"
